{
  "_format": "hh3-artifact-1",
  "contractName": "ZenGardenFlower",
  "sourceName": "contracts/ZenGardenFlower.sol",
  "abi": [
    {
      "inputs": [],
      "stateMutability": "nonpayable",
      "type": "constructor"
    },
    {
      "inputs": [
        {
          "internalType": "address",
          "name": "sender",
          "type": "address"
        },
        {
          "internalType": "uint256",
          "name": "tokenId",
          "type": "uint256"
        },
        {
          "internalType": "address",
          "name": "owner",
          "type": "address"
        }
      ],
      "name": "ERC721IncorrectOwner",
      "type": "error"
    },
    {
      "inputs": [
        {
          "internalType": "address",
          "name": "operator",
          "type": "address"
        },
        {
          "internalType": "uint256",
          "name": "tokenId",
          "type": "uint256"
        }
      ],
      "name": "ERC721InsufficientApproval",
      "type": "error"
    },
    {
      "inputs": [
        {
          "internalType": "address",
          "name": "approver",
          "type": "address"
        }
      ],
      "name": "ERC721InvalidApprover",
      "type": "error"
    },
    {
      "inputs": [
        {
          "internalType": "address",
          "name": "operator",
          "type": "address"
        }
      ],
      "name": "ERC721InvalidOperator",
      "type": "error"
    },
    {
      "inputs": [
        {
          "internalType": "address",
          "name": "owner",
          "type": "address"
        }
      ],
      "name": "ERC721InvalidOwner",
      "type": "error"
    },
    {
      "inputs": [
        {
          "internalType": "address",
          "name": "receiver",
          "type": "address"
        }
      ],
      "name": "ERC721InvalidReceiver",
      "type": "error"
    },
    {
      "inputs": [
        {
          "internalType": "address",
          "name": "sender",
          "type": "address"
        }
      ],
      "name": "ERC721InvalidSender",
      "type": "error"
    },
    {
      "inputs": [
        {
          "internalType": "uint256",
          "name": "tokenId",
          "type": "uint256"
        }
      ],
      "name": "ERC721NonexistentToken",
      "type": "error"
    },
    {
      "inputs": [
        {
          "internalType": "address",
          "name": "owner",
          "type": "address"
        }
      ],
      "name": "OwnableInvalidOwner",
      "type": "error"
    },
    {
      "inputs": [
        {
          "internalType": "address",
          "name": "account",
          "type": "address"
        }
      ],
      "name": "OwnableUnauthorizedAccount",
      "type": "error"
    },
    {
      "anonymous": false,
      "inputs": [
        {
          "indexed": true,
          "internalType": "address",
          "name": "owner",
          "type": "address"
        },
        {
          "indexed": true,
          "internalType": "address",
          "name": "approved",
          "type": "address"
        },
        {
          "indexed": true,
          "internalType": "uint256",
          "name": "tokenId",
          "type": "uint256"
        }
      ],
      "name": "Approval",
      "type": "event"
    },
    {
      "anonymous": false,
      "inputs": [
        {
          "indexed": true,
          "internalType": "address",
          "name": "owner",
          "type": "address"
        },
        {
          "indexed": true,
          "internalType": "address",
          "name": "operator",
          "type": "address"
        },
        {
          "indexed": false,
          "internalType": "bool",
          "name": "approved",
          "type": "bool"
        }
      ],
      "name": "ApprovalForAll",
      "type": "event"
    },
    {
      "anonymous": false,
      "inputs": [
        {
          "indexed": false,
          "internalType": "uint256",
          "name": "_fromTokenId",
          "type": "uint256"
        },
        {
          "indexed": false,
          "internalType": "uint256",
          "name": "_toTokenId",
          "type": "uint256"
        }
      ],
      "name": "BatchMetadataUpdate",
      "type": "event"
    },
    {
      "anonymous": false,
      "inputs": [
        {
          "indexed": true,
          "internalType": "address",
          "name": "to",
          "type": "address"
        },
        {
          "indexed": true,
          "internalType": "uint256",
          "name": "tokenId",
          "type": "uint256"
        },
        {
          "indexed": false,
          "internalType": "string",
          "name": "uri",
          "type": "string"
        }
      ],
      "name": "FlowerMinted",
      "type": "event"
    },
    {
      "anonymous": false,
      "inputs": [
        {
          "indexed": false,
          "internalType": "uint256",
          "name": "_tokenId",
          "type": "uint256"
        }
      ],
      "name": "MetadataUpdate",
      "type": "event"
    },
    {
      "anonymous": false,
      "inputs": [
        {
          "indexed": true,
          "internalType": "address",
          "name": "minter",
          "type": "address"
        }
      ],
      "name": "MinterAdded",
      "type": "event"
    },
    {
      "anonymous": false,
      "inputs": [
        {
          "indexed": true,
          "internalType": "address",
          "name": "minter",
          "type": "address"
        }
      ],
      "name": "MinterRemoved",
      "type": "event"
    },
    {
      "anonymous": false,
      "inputs": [
        {
          "indexed": true,
          "internalType": "address",
          "name": "previousOwner",
          "type": "address"
        },
        {
          "indexed": true,
          "internalType": "address",
          "name": "newOwner",
          "type": "address"
        }
      ],
      "name": "OwnershipTransferred",
      "type": "event"
    },
    {
      "anonymous": false,
      "inputs": [
        {
          "indexed": true,
          "internalType": "address",
          "name": "from",
          "type": "address"
        },
        {
          "indexed": true,
          "internalType": "address",
          "name": "to",
          "type": "address"
        },
        {
          "indexed": true,
          "internalType": "uint256",
          "name": "tokenId",
          "type": "uint256"
        }
      ],
      "name": "Transfer",
      "type": "event"
    },
    {
      "inputs": [
        {
          "internalType": "address",
          "name": "minter",
          "type": "address"
        }
      ],
      "name": "addMinter",
      "outputs": [],
      "stateMutability": "nonpayable",
      "type": "function"
    },
    {
      "inputs": [
        {
          "internalType": "address",
          "name": "to",
          "type": "address"
        },
        {
          "internalType": "uint256",
          "name": "tokenId",
          "type": "uint256"
        }
      ],
      "name": "approve",
      "outputs": [],
      "stateMutability": "nonpayable",
      "type": "function"
    },
    {
      "inputs": [
        {
          "internalType": "address",
          "name": "owner",
          "type": "address"
        }
      ],
      "name": "balanceOf",
      "outputs": [
        {
          "internalType": "uint256",
          "name": "",
          "type": "uint256"
        }
      ],
      "stateMutability": "view",
      "type": "function"
    },
    {
      "inputs": [
        {
          "internalType": "uint256",
          "name": "tokenId",
          "type": "uint256"
        }
      ],
      "name": "getApproved",
      "outputs": [
        {
          "internalType": "address",
          "name": "",
          "type": "address"
        }
      ],
      "stateMutability": "view",
      "type": "function"
    },
    {
      "inputs": [
        {
          "internalType": "address",
          "name": "owner",
          "type": "address"
        },
        {
          "internalType": "address",
          "name": "operator",
          "type": "address"
        }
      ],
      "name": "isApprovedForAll",
      "outputs": [
        {
          "internalType": "bool",
          "name": "",
          "type": "bool"
        }
      ],
      "stateMutability": "view",
      "type": "function"
    },
    {
      "inputs": [
        {
          "internalType": "address",
          "name": "to",
          "type": "address"
        },
        {
          "internalType": "string",
          "name": "uri",
          "type": "string"
        }
      ],
      "name": "mint",
      "outputs": [
        {
          "internalType": "uint256",
          "name": "",
          "type": "uint256"
        }
      ],
      "stateMutability": "nonpayable",
      "type": "function"
    },
    {
      "inputs": [
        {
          "internalType": "address",
          "name": "",
          "type": "address"
        }
      ],
      "name": "minters",
      "outputs": [
        {
          "internalType": "bool",
          "name": "",
          "type": "bool"
        }
      ],
      "stateMutability": "view",
      "type": "function"
    },
    {
      "inputs": [],
      "name": "name",
      "outputs": [
        {
          "internalType": "string",
          "name": "",
          "type": "string"
        }
      ],
      "stateMutability": "view",
      "type": "function"
    },
    {
      "inputs": [],
      "name": "owner",
      "outputs": [
        {
          "internalType": "address",
          "name": "",
          "type": "address"
        }
      ],
      "stateMutability": "view",
      "type": "function"
    },
    {
      "inputs": [
        {
          "internalType": "uint256",
          "name": "tokenId",
          "type": "uint256"
        }
      ],
      "name": "ownerOf",
      "outputs": [
        {
          "internalType": "address",
          "name": "",
          "type": "address"
        }
      ],
      "stateMutability": "view",
      "type": "function"
    },
    {
      "inputs": [
        {
          "internalType": "address",
          "name": "minter",
          "type": "address"
        }
      ],
      "name": "removeMinter",
      "outputs": [],
      "stateMutability": "nonpayable",
      "type": "function"
    },
    {
      "inputs": [],
      "name": "renounceOwnership",
      "outputs": [],
      "stateMutability": "nonpayable",
      "type": "function"
    },
    {
      "inputs": [
        {
          "internalType": "address",
          "name": "from",
          "type": "address"
        },
        {
          "internalType": "address",
          "name": "to",
          "type": "address"
        },
        {
          "internalType": "uint256",
          "name": "tokenId",
          "type": "uint256"
        }
      ],
      "name": "safeTransferFrom",
      "outputs": [],
      "stateMutability": "nonpayable",
      "type": "function"
    },
    {
      "inputs": [
        {
          "internalType": "address",
          "name": "from",
          "type": "address"
        },
        {
          "internalType": "address",
          "name": "to",
          "type": "address"
        },
        {
          "internalType": "uint256",
          "name": "tokenId",
          "type": "uint256"
        },
        {
          "internalType": "bytes",
          "name": "data",
          "type": "bytes"
        }
      ],
      "name": "safeTransferFrom",
      "outputs": [],
      "stateMutability": "nonpayable",
      "type": "function"
    },
    {
      "inputs": [
        {
          "internalType": "address",
          "name": "operator",
          "type": "address"
        },
        {
          "internalType": "bool",
          "name": "approved",
          "type": "bool"
        }
      ],
      "name": "setApprovalForAll",
      "outputs": [],
      "stateMutability": "nonpayable",
      "type": "function"
    },
    {
      "inputs": [
        {
          "internalType": "bytes4",
          "name": "interfaceId",
          "type": "bytes4"
        }
      ],
      "name": "supportsInterface",
      "outputs": [
        {
          "internalType": "bool",
          "name": "",
          "type": "bool"
        }
      ],
      "stateMutability": "view",
      "type": "function"
    },
    {
      "inputs": [],
      "name": "symbol",
      "outputs": [
        {
          "internalType": "string",
          "name": "",
          "type": "string"
        }
      ],
      "stateMutability": "view",
      "type": "function"
    },
    {
      "inputs": [
        {
          "internalType": "uint256",
          "name": "tokenId",
          "type": "uint256"
        }
      ],
      "name": "tokenURI",
      "outputs": [
        {
          "internalType": "string",
          "name": "",
          "type": "string"
        }
      ],
      "stateMutability": "view",
      "type": "function"
    },
    {
      "inputs": [],
      "name": "totalSupply",
      "outputs": [
        {
          "internalType": "uint256",
          "name": "",
          "type": "uint256"
        }
      ],
      "stateMutability": "view",
      "type": "function"
    },
    {
      "inputs": [
        {
          "internalType": "address",
          "name": "from",
          "type": "address"
        },
        {
          "internalType": "address",
          "name": "to",
          "type": "address"
        },
        {
          "internalType": "uint256",
          "name": "tokenId",
          "type": "uint256"
        }
      ],
      "name": "transferFrom",
      "outputs": [],
      "stateMutability": "nonpayable",
      "type": "function"
    },
    {
      "inputs": [
        {
          "internalType": "address",
          "name": "newOwner",
          "type": "address"
        }
      ],
      "name": "transferOwnership",
      "outputs": [],
      "stateMutability": "nonpayable",
      "type": "function"
    }
  ],
  "bytecode": "0x608060405234801561000f575f5ffd5b50336040518060400160405280601081526020016f2d32b723b0b93232b710233637bbb2b960811b815250604051806040016040528060048152602001632d22a72360e11b815250815f908161006591906101b3565b50600161007282826101b3565b5050506001600160a01b0381166100a257604051631e4fbdf760e01b81525f600482015260240160405180910390fd5b6100ab816100ca565b50335f908152600960205260409020805460ff1916600117905561026d565b600780546001600160a01b038381166001600160a01b0319831681179093556040519116919082907f8be0079c531659141344cd1fd0a4f28419497f9722a3daafe3b4186f6b6457e0905f90a35050565b634e487b7160e01b5f52604160045260245ffd5b600181811c9082168061014357607f821691505b60208210810361016157634e487b7160e01b5f52602260045260245ffd5b50919050565b601f8211156101ae57805f5260205f20601f840160051c8101602085101561018c5750805b601f840160051c820191505b818110156101ab575f8155600101610198565b50505b505050565b81516001600160401b038111156101cc576101cc61011b565b6101e0816101da845461012f565b84610167565b6020601f821160018114610212575f83156101fb5750848201515b5f19600385901b1c1916600184901b1784556101ab565b5f84815260208120601f198516915b828110156102415787850151825560209485019460019092019101610221565b508482101561025e57868401515f19600387901b60f8161c191681555b50505050600190811b01905550565b6115638061027a5f395ff3fe608060405234801561000f575f5ffd5b5060043610610132575f3560e01c8063715018a6116100b4578063b88d4fde11610079578063b88d4fde1461026b578063c87b56dd1461027e578063d0def52114610291578063e985e9c5146102a4578063f2fde38b146102b7578063f46eccc4146102ca575f5ffd5b8063715018a6146102245780638da5cb5b1461022c57806395d89b411461023d578063983b2d5614610245578063a22cb46514610258575f5ffd5b806323b872dd116100fa57806323b872dd146101c55780633092afd5146101d857806342842e0e146101eb5780636352211e146101fe57806370a0823114610211575f5ffd5b806301ffc9a71461013657806306fdde031461015e578063081812fc14610173578063095ea7b31461019e57806318160ddd146101b3575b5f5ffd5b61014961014436600461107e565b6102ec565b60405190151581526020015b60405180910390f35b6101666102fc565b60405161015591906110c7565b6101866101813660046110d9565b61038b565b6040516001600160a01b039091168152602001610155565b6101b16101ac36600461110b565b6103b2565b005b6008545b604051908152602001610155565b6101b16101d3366004611133565b6103c1565b6101b16101e636600461116d565b61044f565b6101b16101f9366004611133565b61049f565b61018661020c3660046110d9565b6104be565b6101b761021f36600461116d565b6104c8565b6101b161050d565b6007546001600160a01b0316610186565b610166610520565b6101b161025336600461116d565b61052f565b6101b1610266366004611186565b610582565b6101b161027936600461124a565b61058d565b61016661028c3660046110d9565b6105a5565b6101b761029f3660046112c1565b6105b0565b6101496102b236600461131f565b610685565b6101b16102c536600461116d565b6106b2565b6101496102d836600461116d565b60096020525f908152604090205460ff1681565b5f6102f6826106ef565b92915050565b60605f805461030a90611350565b80601f016020809104026020016040519081016040528092919081815260200182805461033690611350565b80156103815780601f1061035857610100808354040283529160200191610381565b820191905f5260205f20905b81548152906001019060200180831161036457829003601f168201915b5050505050905090565b5f61039582610713565b505f828152600460205260409020546001600160a01b03166102f6565b6103bd82823361074b565b5050565b6001600160a01b0382166103ef57604051633250574960e11b81525f60048201526024015b60405180910390fd5b5f6103fb838333610758565b9050836001600160a01b0316816001600160a01b031614610449576040516364283d7b60e01b81526001600160a01b03808616600483015260248201849052821660448201526064016103e6565b50505050565b61045761084a565b6001600160a01b0381165f81815260096020526040808220805460ff19169055517fe94479a9f7e1952cc78f2d6baab678adc1b772d936c6583def489e524cb666929190a250565b6104b983838360405180602001604052805f81525061058d565b505050565b5f6102f682610713565b5f6001600160a01b0382166104f2576040516322718ad960e21b81525f60048201526024016103e6565b506001600160a01b03165f9081526003602052604090205490565b61051561084a565b61051e5f610877565b565b60606001805461030a90611350565b61053761084a565b6001600160a01b0381165f81815260096020526040808220805460ff19166001179055517f6ae172837ea30b801fbfcdd4108aa1d5bf8ff775444fd70256b44e6bf3dfc3f69190a250565b6103bd3383836108c8565b6105988484846103c1565b6104493385858585610966565b60606102f682610a8e565b335f9081526009602052604081205460ff16806105d757506007546001600160a01b031633145b6106125760405162461bcd60e51b815260206004820152600c60248201526b2737ba10309036b4b73a32b960a11b60448201526064016103e6565b600880545f918261062283611388565b9190505590506106328482610b99565b61063c8184610bb2565b80846001600160a01b03167fe5e62f9c946d87097a15a5e1a4c72dc1425805878d10c350e34f069cf18eaffa8560405161067691906110c7565b60405180910390a39392505050565b6001600160a01b039182165f90815260056020908152604080832093909416825291909152205460ff1690565b6106ba61084a565b6001600160a01b0381166106e357604051631e4fbdf760e01b81525f60048201526024016103e6565b6106ec81610877565b50565b5f6001600160e01b03198216632483248360e11b14806102f657506102f682610c01565b5f818152600260205260408120546001600160a01b0316806102f657604051637e27328960e01b8152600481018490526024016103e6565b6104b98383836001610c50565b5f828152600260205260408120546001600160a01b039081169083161561078457610784818486610d54565b6001600160a01b038116156107be5761079f5f855f5f610c50565b6001600160a01b0381165f90815260036020526040902080545f190190555b6001600160a01b038516156107ec576001600160a01b0385165f908152600360205260409020805460010190555b5f8481526002602052604080822080546001600160a01b0319166001600160a01b0389811691821790925591518793918516917fddf252ad1be2c89b69c2b068fc378daa952ba7f163c4a11628f55a4df523b3ef91a4949350505050565b6007546001600160a01b0316331461051e5760405163118cdaa760e01b81523360048201526024016103e6565b600780546001600160a01b038381166001600160a01b0319831681179093556040519116919082907f8be0079c531659141344cd1fd0a4f28419497f9722a3daafe3b4186f6b6457e0905f90a35050565b6001600160a01b0382166108fa57604051630b61174360e31b81526001600160a01b03831660048201526024016103e6565b6001600160a01b038381165f81815260056020908152604080832094871680845294825291829020805460ff191686151590811790915591519182527f17307eab39ab6107e8899845ad3d59bd9653f200f220920489ca2b5937696c31910160405180910390a3505050565b6001600160a01b0383163b15610a8757604051630a85bd0160e11b81526001600160a01b0384169063150b7a02906109a89088908890879087906004016113ac565b6020604051808303815f875af19250505080156109e2575060408051601f3d908101601f191682019092526109df918101906113e8565b60015b610a49573d808015610a0f576040519150601f19603f3d011682016040523d82523d5f602084013e610a14565b606091505b5080515f03610a4157604051633250574960e11b81526001600160a01b03851660048201526024016103e6565b805160208201fd5b6001600160e01b03198116630a85bd0160e11b14610a8557604051633250574960e11b81526001600160a01b03851660048201526024016103e6565b505b5050505050565b6060610a9982610713565b505f8281526006602052604081208054610ab290611350565b80601f0160208091040260200160405190810160405280929190818152602001828054610ade90611350565b8015610b295780601f10610b0057610100808354040283529160200191610b29565b820191905f5260205f20905b815481529060010190602001808311610b0c57829003601f168201915b505050505090505f610b4560408051602081019091525f815290565b905080515f03610b56575092915050565b815115610b88578082604051602001610b7092919061141a565b60405160208183030381529060405292505050919050565b610b9184610db8565b949350505050565b6103bd828260405180602001604052805f815250610e29565b5f828152600660205260409020610bc98282611472565b506040518281527ff8e1a15aba9398e019f0b49df1a4fde98ee17ae345cb5f6b5e2c27f5033e8ce79060200160405180910390a15050565b5f6001600160e01b031982166380ac58cd60e01b1480610c3157506001600160e01b03198216635b5e139f60e01b145b806102f657506301ffc9a760e01b6001600160e01b03198316146102f6565b8080610c6457506001600160a01b03821615155b15610d25575f610c7384610713565b90506001600160a01b03831615801590610c9f5750826001600160a01b0316816001600160a01b031614155b8015610cb25750610cb08184610685565b155b15610cdb5760405163a9fbf51f60e01b81526001600160a01b03841660048201526024016103e6565b8115610d235783856001600160a01b0316826001600160a01b03167f8c5be1e5ebec7d5bd14f71427d1e84f3dd0314c0f7b2291e5b200ac8c7c3b92560405160405180910390a45b505b50505f90815260046020526040902080546001600160a01b0319166001600160a01b0392909216919091179055565b610d5f838383610e40565b6104b9576001600160a01b038316610d8d57604051637e27328960e01b8152600481018290526024016103e6565b60405163177e802f60e01b81526001600160a01b0383166004820152602481018290526044016103e6565b6060610dc382610713565b505f610dd960408051602081019091525f815290565b90505f815111610df75760405180602001604052805f815250610e22565b80610e0184610ea1565b604051602001610e1292919061141a565b6040516020818303038152906040525b9392505050565b610e338383610f31565b6104b9335f858585610966565b5f6001600160a01b03831615801590610b915750826001600160a01b0316846001600160a01b03161480610e795750610e798484610685565b80610b915750505f908152600460205260409020546001600160a01b03908116911614919050565b60605f610ead83610f92565b60010190505f8167ffffffffffffffff811115610ecc57610ecc6111bf565b6040519080825280601f01601f191660200182016040528015610ef6576020820181803683370190505b5090508181016020015b5f19016f181899199a1a9b1b9c1cb0b131b232b360811b600a86061a8153600a8504945084610f0057509392505050565b6001600160a01b038216610f5a57604051633250574960e11b81525f60048201526024016103e6565b5f610f6683835f610758565b90506001600160a01b038116156104b9576040516339e3563760e11b81525f60048201526024016103e6565b5f8072184f03e93ff9f4daa797ed6e38ed64bf6a1f0160401b8310610fd05772184f03e93ff9f4daa797ed6e38ed64bf6a1f0160401b830492506040015b6d04ee2d6d415b85acef81000000008310610ffc576d04ee2d6d415b85acef8100000000830492506020015b662386f26fc10000831061101a57662386f26fc10000830492506010015b6305f5e1008310611032576305f5e100830492506008015b612710831061104657612710830492506004015b60648310611058576064830492506002015b600a83106102f65760010192915050565b6001600160e01b0319811681146106ec575f5ffd5b5f6020828403121561108e575f5ffd5b8135610e2281611069565b5f81518084528060208401602086015e5f602082860101526020601f19601f83011685010191505092915050565b602081525f610e226020830184611099565b5f602082840312156110e9575f5ffd5b5035919050565b80356001600160a01b0381168114611106575f5ffd5b919050565b5f5f6040838503121561111c575f5ffd5b611125836110f0565b946020939093013593505050565b5f5f5f60608486031215611145575f5ffd5b61114e846110f0565b925061115c602085016110f0565b929592945050506040919091013590565b5f6020828403121561117d575f5ffd5b610e22826110f0565b5f5f60408385031215611197575f5ffd5b6111a0836110f0565b9150602083013580151581146111b4575f5ffd5b809150509250929050565b634e487b7160e01b5f52604160045260245ffd5b5f5f67ffffffffffffffff8411156111ed576111ed6111bf565b50604051601f19601f85018116603f0116810181811067ffffffffffffffff8211171561121c5761121c6111bf565b604052838152905080828401851015611233575f5ffd5b838360208301375f60208583010152509392505050565b5f5f5f5f6080858703121561125d575f5ffd5b611266856110f0565b9350611274602086016110f0565b925060408501359150606085013567ffffffffffffffff811115611296575f5ffd5b8501601f810187136112a6575f5ffd5b6112b5878235602084016111d3565b91505092959194509250565b5f5f604083850312156112d2575f5ffd5b6112db836110f0565b9150602083013567ffffffffffffffff8111156112f6575f5ffd5b8301601f81018513611306575f5ffd5b611315858235602084016111d3565b9150509250929050565b5f5f60408385031215611330575f5ffd5b611339836110f0565b9150611347602084016110f0565b90509250929050565b600181811c9082168061136457607f821691505b60208210810361138257634e487b7160e01b5f52602260045260245ffd5b50919050565b5f600182016113a557634e487b7160e01b5f52601160045260245ffd5b5060010190565b6001600160a01b03858116825284166020820152604081018390526080606082018190525f906113de90830184611099565b9695505050505050565b5f602082840312156113f8575f5ffd5b8151610e2281611069565b5f81518060208401855e5f93019283525090919050565b5f610b916114288386611403565b84611403565b601f8211156104b957805f5260205f20601f840160051c810160208510156114535750805b601f840160051c820191505b81811015610a87575f815560010161145f565b815167ffffffffffffffff81111561148c5761148c6111bf565b6114a08161149a8454611350565b8461142e565b6020601f8211600181146114d2575f83156114bb5750848201515b5f19600385901b1c1916600184901b178455610a87565b5f84815260208120601f198516915b8281101561150157878501518255602094850194600190920191016114e1565b508482101561151e57868401515f19600387901b60f8161c191681555b50505050600190811b0190555056fea26469706673582212209c39d988c5db350bb7c7fb2e3669a49b3ef6bd298eaa0015bde3cccf214d9c6b64736f6c634300081c0033",
  "linkReferences": {},
  "deployedLinkReferences": {},
  "immutableReferences": {},
  "inputSourceName": "project/contracts/ZenGardenFlower.sol",
  "buildInfoId": "solc-0_8_28-4b2618af55770c189cb55b453e1588d06bc2a8b8"
}